S0110000726F626F74436172322E73726563A5
S11300000C9434000C9494000C9451000C94510002
S11300100C9451000C9451000C9451000C94510018
S11300200C9451000C9451000C9451000C94510008
S11300300C9451000C9451000C94C3000C94510086
S11300400C9451000C9451000C9451000C945100E8
S11300500C9451000C9451000C9451000C945100D8
S11300600C9451000C94510011241FBECFEFD8E022
S1130070DEBFCDBF11E0A0E0B1E0ECE1F3E002C0EF
S113008005900D92A230B107D9F721E0A2E0B1E0CA
S113009001C01D92AB34B207E1F70E9453000C94E7
S11300A08C010C9400000E945F010E9477000E9462
S11300B08400FDCF8AB188668AB984B1886084B926
S11300C084B5836084BD84B5806A84BD85B583604E
S11300D085BDE0EBF0E08081836080838081806A6D
S11300E08083E1EBF0E080818460808308950E9446
S11300F05A00089587BD089588BD08958093B3007C
S113010008958093B400089580E00E947A0080E00E
S11301100E947C0080E00E947E0080E00E948100BA
S113012086E08093000108951F920F920FB60F92FC
S113013011248F93EF93FF9383E0809306018DB393
S11301408E7F8DBBEEE6F0E080818D7F808385B568
S11301508C7F85BD81E086BD87E287BD85B58360E0
S113016085BD109202011092030185B3826085BBA4
S1130170808182608083FF91EF918F910F900FBEF9
S11301800F901F9018951F920F920FB60F92112483
S11301908F939F93EF93FF9380910601823039F1FF
S11301A0833009F44DC0813009F07EC08091040190
S11301B08830B0F48091050180FF04C08BB1816068
S11301C08BB903C08BB18E7F8BB980910501869565
S11301D080930501809104018F5F8093040166C0C0
S11301E08BB181608BB982E0809306015FC09091EE
S11301F00801809107019817A9F0E0910701EF5FCA
S1130200EF71E093070181E0809306018BB18E7F4B
S11302108BB9F0E0E75FFE4F808180930501109277
S1130220040144C0EEE6F0E080818D7F808310926B
S113023006018CB381608CBB8DB381608DBB36C0ED
S113024089E187BD80910201883090F48091020198
S11302508F5F80930201809103018695809303014F
S11302604F9B24C0809103018068809303011EC0CA
S1130270EEE6F0E080818D7F80838CB381608CBB5F
S11302808DB381608DBBE0912A01EF5FEF71E09344
S11302902A0180912901F0E080910301E55DFE4F80
S11302A080831092060102C010920601FF91EF9123
S11302B09F918F910F900FBE0F901F9018951092E1
S11302C0290110922A0110920701109208018AB1A3
S11302D08F778AB98BB180688BB98AB181608AB90A
S11302E08BB181608BB9EEE6F0E080818D7F8083F5
S11302F084B5826084BD85B5836085BDE9E6F0E0A0
S11303008081826080838CB381608CBB8DB381607B
S10F03108DBB109206010895F894FFCFF5
S105031C0600D5
S9030000FC
